:020000040000FA
:100000000C9462000C948A000C948A000C948A0070
:100010000C948A000C948A000C948A000C948A0038
:100020000C948A000C948A000C948A000C948A0028
:100030000C948A000C941E030C948A000C948A0081
:100040000C947C020C948A000C94EC020C94C60272
:100050000C948A000C948A000C948A000C948A00F8
:100060000C948A000C948A000000000023002600F3
:10007000290000000008000201000003040700003E
:1000800000000000000000000000250028002B00F8
:1000900000000000240027002A00040404040404D3
:1000A0000404020202020202030303030303010227
:1000B00004081020408001020408102001020408F6
:1000C0001020A30411241FBECFEFD8E0DEBFCDBFA8
:1000D00011E0A0E0B1E0E8E8FDE002C005900D927B
:1000E000A232B107D9F721E0A2E2B1E001C01D922E
:1000F000AB3CB207E1F710E0C2E6D0E004C02197C4
:10010000FE010E94BC06C136D107C9F70E94280330
:100110000C94C2060C940000833081F028F48130E6
:1001200099F08230A9F008958730A9F08830C9F09D
:100130008430B1F4809180008F7D03C08091800075
:100140008F7780938000089584B58F7784BD08955C
:1001500084B58F7DFBCF8091B0008F778093B00006
:1001600008958091B0008F7DF9CFAF92BF92CF926A
:10017000DF92EF92FF920F931F93CF93DF936C0167
:100180007B018B01040F151FEB015E01AE18BF0848
:10019000C017D10759F06991D601ED91FC910190FA
:1001A000F081E02DC6010995892B79F7C501DF9112
:1001B000CF911F910F91FF90EF90DF90CF90BF9064
:1001C000AF900895FC01538D448D252F30E0842F8E
:1001D00090E0821B930B541710F0CF96089501976F
:1001E0000895FC01918D828D981761F0A28DAE0F5C
:1001F000BF2FB11D5D968C91928D9F5F9F73928FE3
:1002000090E008958FEF9FEF0895FC01918D828D0E
:10021000981731F0828DE80FF11D858D90E00895DB
:100220008FEF9FEF0895FC01918D228D892F90E033
:10023000805C9F4F821B91098F73992708958EE2EE
:1002400091E00E94130121E0892B09F420E0822F24
:10025000089580E090E0892B29F00E941F01811110
:100260000C9400000895FC01A48DA80FB92FB11DB6
:10027000A35ABF4F2C91848D90E001968F739927DC
:10028000848FA689B7892C93A089B1898C918370BA
:1002900080648C93938D848D981306C00288F389B3
:1002A000E02D80818F7D80830895EF92FF920F93E0
:1002B0001F93CF93DF93EC0181E0888F9B8D8C8D12
:1002C00098131AC0E889F989808185FF15C09FB706
:1002D000F894EE89FF896083E889F98980818370C9
:1002E000806480839FBF81E090E0DF91CF911F9178
:1002F0000F91FF90EF900895F62E0B8D10E00F5F99
:100300001F4F0F731127E02E8C8D8E110CC00FB66E
:1003100007FCFACFE889F989808185FFF5CFCE0106
:100320000E943301F1CFEB8DEC0FFD2FF11DE35A4D
:10033000FF4FF0829FB7F8940B8FEA89FB89808189
:100340008062CFCFCF93DF93EC01888D8823B9F003
:10035000AA89BB89E889F9898C9185FD03C08081D0
:1003600086FD0DC00FB607FCF7CF8C9185FFF2CF4D
:10037000808185FFEDCFCE010E943301E9CFDF916F
:10038000CF9108950895CF92DF92EF92FF920F934D
:100390001F93CF93DF932FE7C22E20E0D22EF601DA
:1003A00084913BEBE32E30E0F32EF7010491C7EA92
:1003B000D0E0FE011491112309F448C081110E947C
:1003C0008C00E12FF0E0EE0FFF1FE859FF4FA591E1
:1003D000B4918C91082391E080E009F490E0092F1A
:1003E000182FF6018491F701E490FE01C491CC230B
:1003F000A1F081110E948C00EC2FF0E0EE0FFF1FA6
:10040000EA57FF4FA591B4918FB7F8949C91012BB7
:1004100001F1E094E922EC928FBF85E08093240102
:100420008FEF9FEF90932301809322019093870099
:100430008093860085E180938100DF91CF911F91A9
:100440000F91FF90EF90DF90CF90089510E000E0C3
:10045000C8CFE92AE0CFFC0101900020E9F73197ED
:10046000AF01481B590BBC018EE291E00C94B50022
:100470008F929F92AF92BF920F931F93CF93DF9370
:10048000CDB7DEB7A1970FB6F894DEBF0FBECDBFD4
:1004900019A2423008F44AE08E010F5D1F4F842EEE
:1004A000912CB12CA12CA50194010E949A06E62F53
:1004B000B901CA01EA30F4F4E05DD801EE938D0190
:1004C000232B242B252B79F790E080E0109719F04F
:1004D000CD010E942B02A1960FB6F894DEBF0FBE8D
:1004E000CDBFDF91CF911F910F91BF90AF909F90A3
:1004F0008F900895E95CE1CF1F920F920FB60F9293
:1005000011242F933F938F939F93AF93BF93809129
:100510002A0190912B01A0912C01B0912D013091D5
:10052000290123E0230F2D3758F50196A11DB11D98
:100530002093290180932A0190932B01A0932C01F1
:10054000B0932D018091250190912601A091270162
:10055000B09128010196A11DB11D809325019093B2
:100560002601A0932701B0932801BF91AF919F91DD
:100570008F913F912F910F900FBE0F901F90189564
:1005800026E8230F0296A11DB11DD2CF1F920F9214
:100590000FB60F9211242F933F934F935F936F9356
:1005A0007F938F939F93AF93BF93EF93FF938EE2CD
:1005B00091E00E943301FF91EF91BF91AF919F9124
:1005C0008F917F916F915F914F913F912F910F90FC
:1005D0000FBE0F901F9018951F920F920FB60F929B
:1005E00011242F938F939F93EF93FF93E0913E01FC
:1005F000F0913F018081E0914401F091450182FD3D
:100600001BC09081809147018F5F8F7320914801BB
:10061000821741F0E0914701F0E0E25DFE4F958FD7
:1006200080934701FF91EF919F918F912F910F90B0
:100630000FBE0F901F9018958081F4CF1F920F92DC
:100640000FB60F9211240F900FBE0F901F901895A8
:10065000789484B5826084BD84B5816084BD85B59D
:10066000826085BD85B5816085BD80916E008160A9
:1006700080936E001092810080918100826080934F
:100680008100809181008160809381008091800051
:100690008160809380008091B10084608093B1007C
:1006A0008091B00081608093B00080917A00846076
:1006B00080937A0080917A00826080937A008091A2
:1006C0007A00816080937A0080917A0080688093BC
:1006D0007A001092C100E0913E01F0913F0182E06A
:1006E0008083E0913A01F0913B011082E0913C015E
:1006F000F0913D018FEC808310924601E091420120
:10070000F091430186E08083E0914001F091410146
:10071000808180618083E0914001F091410180817E
:1007200088608083E0914001F09141018081806880
:100730008083E0914001F091410180818F7D808331
:10074000EBEBF0E02491E7EAF0E08491882399F064
:1007500090E0880F991FFC01E057FF4FA591B491DD
:10076000FC01EA57FF4F859194918FB7F894EC9173
:10077000E22BEC938FBF10E4C0E0D0E010937C003C
:1007800080917A00806480937A0080917A0086FD5F
:10079000FCCF6091780070917900072E000C880BD7
:1007A000990B0E94730523E030E040EA5BE30E946E
:1007B000280620E030E040E05FE30E94D00420E023
:1007C00030E048EC52E40E9428066B017C01AC0149
:1007D0009B010E949506882309F182E191E00E9425
:1007E0002B028EE191E00E942B0220E030E040EFEE
:1007F00051E4C701B6010E943D0587FFA1C080E911
:1008000090ED0E94C301209709F4B8CF0E941F0108
:10081000882309F4B3CF0E940000B0CF46015701EE
:10082000E894B7F82FEF3FEF4FE75FE7C501B4015A
:100830000E94950681110DC02FEF3FEF4FE75FE754
:10084000C501B4010E943D0518161CF486E191E033
:10085000C6CF2FEF3FEF4FE75FE4C701B6010E941D
:10086000230618161CF48AE191E0B9CF2FEF3FEF71
:100870004FE75FECC701B6010E943D0587FDF3CF4E
:1008800020E030E0A901C701B6010E943D0587FFC5
:1008900054C06DE28EE291E00E945501C701B6019D
:1008A00090582AE037ED43EA5BE30E94D1042B0124
:1008B0003C010E9442054B015C010E9471059B01B5
:1008C000AC01C301B2010E94D0042B013C014AE0FB
:1008D000C501B4010E9438026EE28EE291E00E94EE
:1008E000550120E030E040E251E4C301B2010E9432
:1008F00028062B013C010E9442054B01B12CA12C82
:100900004AE0C501B4010E943802C501B4010E9449
:1009100071059B01AC01C301B2010E94D00420E02B
:1009200030E040E251E40E9428060E94420590E037
:1009300080E04AE00E94380254CFC701B601B1CF2F
:1009400080E291EA5ECFEEE2F1E01382128288EE5D
:1009500093E0A0E0B0E084839583A683B78384E02E
:1009600091E09183808385EC90E09587848784EC87
:1009700090E09787868780EC90E0918B808B81EC6C
:1009800090E0938B828B82EC90E0958B848B86EC4D
:1009900090E0978B868B118E128E138E148E089595
:1009A0005058BB27AA270E94E8040C94E9050E942E
:1009B000DB0538F00E94E20520F039F49F3F19F47E
:1009C00026F40C94D8050EF4E095E7FB0C94D205C0
:1009D000E92F0E94FA0558F3BA17620773078407D4
:1009E000950720F079F4A6F50C941C060EF4E0951A
:1009F0000B2EBA2FA02D0B01B90190010C01CA01D9
:100A0000A0011124FF27591B99F0593F50F4503E83
:100A100068F11A16F040A22F232F342F4427585F75
:100A2000F3CF469537952795A795F0405395C9F78D
:100A30007EF41F16BA0B620B730B840BBAF0915045
:100A4000A1F0FF0FBB1F661F771F881FC2F70EC0E4
:100A5000BA0F621F731F841F48F4879577956795B7
:100A6000B795F7959E3F08F0B0CF9395880F08F0A3
:100A70009927EE0F9795879508950E94AE0508F483
:100A800081E008950E94020688F09F5798F0B92FE0
:100A90009927B751B0F0E1F0660F771F881F991FB3
:100AA0001AF0BA95C9F714C0B13091F00E941C0633
:100AB000B1E008950C941C06672F782F8827B85F43
:100AC00039F0B93FCCF3869577956795B395D9F70B
:100AD0003EF490958095709561957F4F8F4F9F4F15
:100AE0000895E89409C097FB3EF490958095709521
:100AF00061957F4F8F4F9F4F9923A9F0F92F96E96A
:100B0000BB279395F695879577956795B795F111DE
:100B1000F8CFFAF4BB0F11F460FF1BC06F5F7F4F7B
:100B20008F4F9F4F16C0882311F096E911C077238D
:100B300021F09EE8872F762F05C0662371F096E896
:100B4000862F70E060E02AF09A95660F771F881F65
:100B5000DAF7880F9695879597F90895990F000809
:100B6000550FAA0BE0E8FEEF16161706E807F9077F
:100B7000C0F012161306E407F50798F0621B730B1A
:100B8000840B950B39F40A2661F0232B242B252B9B
:100B900021F408950A2609F4A140A6958FEF811D3E
:100BA000811D089597F99F6780E870E060E00895DF
:100BB0009FEF80EC089500240A9416161706180675
:100BC0000906089500240A94121613061406050651
:100BD0000895092E0394000C11F4882352F0BB0FE2
:100BE00040F4BF2B11F460FF04C06F5F7F4F8F4F45
:100BF0009F4F089557FD9058440F551F59F05F3F80
:100C000071F04795880F97FB991F61F09F3F79F02E
:100C100087950895121613061406551FF2CF4695B0
:100C2000F1DF08C0161617061806991FF1CF869532
:100C30007105610508940895E894BB276627772716
:100C4000CB0197F908950E94AE0508F48FEF08953F
:100C50000E943B060C94E9050E94DB0538F00E94D7
:100C6000E20520F0952311F00C94D2050C94D805E0
:100C700011240C941D060E94FA0570F3959FC1F390
:100C8000950F50E0551F629FF001729FBB27F00D3A
:100C9000B11D639FAA27F00DB11DAA1F649F66278F
:100CA000B00DA11D661F829F2227B00DA11D621FDE
:100CB000739FB00DA11D621F839FA00D611D221F98
:100CC000749F3327A00D611D231F849F600D211D7C
:100CD000822F762F6A2F11249F5750409AF0F1F0FF
:100CE00088234AF0EE0FFF1FBB1F661F771F881F68
:100CF00091505040A9F79E3F510580F00C94D205C9
:100D00000C941D065F3FE4F3983ED4F386957795E7
:100D10006795B795F795E7959F5FC1F7FE2B880F0D
:100D2000911D9695879597F908950E94AE05880BB9
:100D3000990B0895A1E21A2EAA1BBB1BFD010DC041
:100D4000AA1FBB1FEE1FFF1FA217B307E407F5077B
:100D500020F0A21BB30BE40BF50B661F771F881F57
:100D6000991F1A9469F760957095809590959B01ED
:100D7000AC01BD01CF010895EE0FFF1F0590F49166
:100D8000E02D0994F894FFCF000000005501B50054
:100D9000E200A2011301F10005016E616E00696EAF
:0A0DA00066006F7666000D0A000081
:107E0000112484B714BE81FFF0D085E080938100F7
:107E100082E08093C00088E18093C10086E0809377
:107E2000C20080E18093C4008EE0C9D0259A86E02C
:107E300020E33CEF91E0309385002093840096BBD3
:107E4000B09BFECF1D9AA8958150A9F7CC24DD24C4
:107E500088248394B5E0AB2EA1E19A2EF3E0BF2EE7
:107E6000A2D0813461F49FD0082FAFD0023811F036
:107E7000013811F484E001C083E08DD089C08234E0
:107E800011F484E103C0853419F485E0A6D080C0E4
:107E9000853579F488D0E82EFF2485D0082F10E0AE
:107EA000102F00270E291F29000F111F8ED06801E7
:107EB0006FC0863521F484E090D080E0DECF843638
:107EC00009F040C070D06FD0082F6DD080E0C81688
:107ED00080E7D80618F4F601B7BEE895C0E0D1E017
:107EE00062D089930C17E1F7F0E0CF16F0E7DF06D8
:107EF00018F0F601B7BEE89568D007B600FCFDCFD4
:107F0000A601A0E0B1E02C9130E011968C91119780
:107F100090E0982F8827822B932B1296FA010C0160
:107F200087BEE89511244E5F5F4FF1E0A038BF0790
:107F300051F7F601A7BEE89507B600FCFDCF97BE46
:107F4000E89526C08437B1F42ED02DD0F82E2BD052
:107F50003CD0F601EF2C8F010F5F1F4F84911BD097
:107F6000EA94F801C1F70894C11CD11CFA94CF0C13
:107F7000D11C0EC0853739F428D08EE10CD085E9AC
:107F80000AD08FE07ACF813511F488E018D01DD067
:107F900080E101D065CF982F8091C00085FFFCCF94
:107FA0009093C60008958091C00087FFFCCF809118
:107FB000C00084FD01C0A8958091C6000895E0E648
:107FC000F0E098E1908380830895EDDF803219F02E
:107FD00088E0F5DFFFCF84E1DECF1F93182FE3DFCA
:107FE0001150E9F7F2DF1F91089580E0E8DFEE27F6
:047FF000FF270994CA
:027FFE00040479
:00000001FF
